{
  "_format": "hh-sol-artifact-1",
  "contractName": "WavePortal",
  "sourceName": "contracts/WavePortal.sol",
  "abi": [
    {
      "inputs": [],
      "stateMutability": "payable",
      "type": "constructor"
    },
    {
      "anonymous": false,
      "inputs": [
        {
          "indexed": false,
          "internalType": "string",
          "name": "statement",
          "type": "string"
        }
      ],
      "name": "NewStatement",
      "type": "event"
    },
    {
      "anonymous": false,
      "inputs": [
        {
          "indexed": false,
          "internalType": "uint256",
          "name": "totalWaves",
          "type": "uint256"
        }
      ],
      "name": "NewTotalWave",
      "type": "event"
    },
    {
      "anonymous": false,
      "inputs": [
        {
          "indexed": true,
          "internalType": "address",
          "name": "from",
          "type": "address"
        },
        {
          "indexed": false,
          "internalType": "uint256",
          "name": "timestamp",
          "type": "uint256"
        },
        {
          "indexed": false,
          "internalType": "string",
          "name": "message",
          "type": "string"
        }
      ],
      "name": "NewWave",
      "type": "event"
    },
    {
      "inputs": [],
      "name": "getAllWaves",
      "outputs": [
        {
          "components": [
            {
              "internalType": "address",
              "name": "waver",
              "type": "address"
            },
            {
              "internalType": "string",
              "name": "message",
              "type": "string"
            },
            {
              "internalType": "uint256",
              "name": "timestamp",
              "type": "uint256"
            }
          ],
          "internalType": "struct WavePortal.Wave[]",
          "name": "",
          "type": "tuple[]"
        }
      ],
      "stateMutability": "view",
      "type": "function"
    },
    {
      "inputs": [],
      "name": "getStatement",
      "outputs": [
        {
          "internalType": "string",
          "name": "",
          "type": "string"
        }
      ],
      "stateMutability": "view",
      "type": "function"
    },
    {
      "inputs": [],
      "name": "getTotalWaves",
      "outputs": [
        {
          "internalType": "uint256",
          "name": "",
          "type": "uint256"
        }
      ],
      "stateMutability": "view",
      "type": "function"
    },
    {
      "inputs": [
        {
          "internalType": "address",
          "name": "",
          "type": "address"
        }
      ],
      "name": "lastWavedAt",
      "outputs": [
        {
          "internalType": "uint256",
          "name": "",
          "type": "uint256"
        }
      ],
      "stateMutability": "view",
      "type": "function"
    },
    {
      "inputs": [
        {
          "internalType": "string",
          "name": "_message",
          "type": "string"
        }
      ],
      "name": "wave",
      "outputs": [],
      "stateMutability": "nonpayable",
      "type": "function"
    }
  ],
  "bytecode": "0x60806040526200004f6040518060400160405280601981526020017f57652068617665206265656e20636f6e737472756374656421000000000000008152506200009f60201b620007cd1760201c565b6040518060200160405280600081525060019080519060200190620000769291906200016b565b50606444426200008791906200029c565b6200009391906200036f565b60028190555062000445565b6200013f81604051602401620000b691906200025c565b6040516020818303038152906040527f41304fac000000000000000000000000000000000000000000000000000000007bffffffffffffffffffffffffffffffffffffffffffffffffffffffff19166020820180517bffffffffffffffffffffffffffffffffffffffffffffffffffffffff83818316178352505050506200014260201b60201c565b50565b60008151905060006a636f6e736f6c652e6c6f679050602083016000808483855afa5050505050565b828054620001799062000339565b90600052602060002090601f0160209004810192826200019d5760008555620001e9565b82601f10620001b857805160ff1916838001178555620001e9565b82800160010185558215620001e9579182015b82811115620001e8578251825591602001919060010190620001cb565b5b509050620001f89190620001fc565b5090565b5b8082111562000217576000816000905550600101620001fd565b5090565b6000620002288262000280565b6200023481856200028b565b93506200024681856020860162000303565b620002518162000434565b840191505092915050565b600060208201905081810360008301526200027881846200021b565b905092915050565b600081519050919050565b600082825260208201905092915050565b6000620002a982620002f9565b9150620002b683620002f9565b9250827fffffffffffffffffffffffffffffffffffffffffffffffffffffffffffffffff03821115620002ee57620002ed620003a7565b5b828201905092915050565b6000819050919050565b60005b838110156200032357808201518184015260208101905062000306565b8381111562000333576000848401525b50505050565b600060028204905060018216806200035257607f821691505b6020821081141562000369576200036862000405565b5b50919050565b60006200037c82620002f9565b91506200038983620002f9565b9250826200039c576200039b620003d6565b5b828206905092915050565b7f4e487b7100000000000000000000000000000000000000000000000000000000600052601160045260246000fd5b7f4e487b7100000000000000000000000000000000000000000000000000000000600052601260045260246000fd5b7f4e487b7100000000000000000000000000000000000000000000000000000000600052602260045260246000fd5b6000601f19601f8301169050919050565b6112c680620004556000396000f3fe608060405234801561001057600080fd5b50600436106100575760003560e01c806323cb17e81461005c578063449d46c01461007a5780639a2cdc0814610096578063a42a4663146100b4578063bd43a908146100e4575b600080fd5b610064610102565b6040516100719190610d7f565b60405180910390f35b610094600480360381019061008f9190610a74565b610194565b005b61009e61065b565b6040516100ab9190610e53565b60405180910390f35b6100ce60048036038101906100c99190610a4b565b610664565b6040516100db9190610e53565b60405180910390f35b6100ec61067c565b6040516100f99190610d5d565b60405180910390f35b6060600180546101119061104e565b80601f016020809104026020016040519081016040528092919081815260200182805461013d9061104e565b801561018a5780601f1061015f5761010080835404028352916020019161018a565b820191906000526020600020905b81548152906001019060200180831161016d57829003601f168201915b5050505050905090565b426000600460003373ffffffffffffffffffffffffffffffffffffffff1673ffffffffffffffffffffffffffffffffffffffff168152602001908152602001600020546101e19190610f7a565b10610221576040517f08c379a000000000000000000000000000000000000000000000000000000000815260040161021890610e33565b60405180910390fd5b42600460003373ffffffffffffffffffffffffffffffffffffffff1673ffffffffffffffffffffffffffffffffffffffff1681526020019081526020016000208190555060016000808282546102779190610f7a565b925050819055506102bd6040518060400160405280600d81526020017f257320686173207761766564210000000000000000000000000000000000000081525033610866565b600360405180606001604052803373ffffffffffffffffffffffffffffffffffffffff16815260200183815260200142815250908060018154018082558091505060019003906000526020600020906003020160009091909190915060008201518160000160006101000a81548173ffffffffffffffffffffffffffffffffffffffff021916908373ffffffffffffffffffffffffffffffffffffffff160217905550602082015181600101908051906020019061037c92919061092b565b506040820151816002015550506064600254424461039a9190610f7a565b6103a49190610f7a565b6103ae91906110b1565b60028190555060326002541161054a576103fd6040518060400160405280600781526020017f257320776f6e210000000000000000000000000000000000000000000000000081525033610866565b6000655af3107a400090504781111561044b576040517f08c379a000000000000000000000000000000000000000000000000000000000815260040161044290610e13565b60405180910390fd5b60003373ffffffffffffffffffffffffffffffffffffffff168260405161047190610d48565b60006040518083038185875af1925050503d80600081146104ae576040519150601f19603f3d011682016040523d82523d6000602084013e6104b3565b606091505b50509050806104f7576040517f08c379a00000000000000000000000000000000000000000000000000000000081526004016104ee90610df3565b60405180910390fd5b6040518060400160405280600e81526020017f596561682120596f7520776f6e210000000000000000000000000000000000008152506001908051906020019061054292919061092b565b505050610597565b6040518060400160405280601781526020017f4f682e2e2e596f75206c6f73742e20536f7272792e2e2e0000000000000000008152506001908051906020019061059592919061092b565b505b3373ffffffffffffffffffffffffffffffffffffffff167f5f7e16dc676677766a70e9c5628aa6c54ddb8b6e5188e2ae1e1f17f1ffbea71642836040516105df929190610e6e565b60405180910390a27ffa4b51bd74afff2197878fe9b14891e7ed32f2f1bbef2e4b39e33472e96c01fd6000546040516106189190610e53565b60405180910390a17f742aed198981747399cff19ef24dd7571703496aa6d3e78cc73de5a0be5c68c960016040516106509190610dd1565b60405180910390a150565b60008054905090565b60046020528060005260406000206000915090505481565b60606003805480602002602001604051908101604052809291908181526020016000905b828210156107c457838290600052602060002090600302016040518060600160405290816000820160009054906101000a900473ffffffffffffffffffffffffffffffffffffffff1673ffffffffffffffffffffffffffffffffffffffff1673ffffffffffffffffffffffffffffffffffffffff1681526020016001820180546107299061104e565b80601f01602080910402602001604051908101604052809291908181526020018280546107559061104e565b80156107a25780601f10610777576101008083540402835291602001916107a2565b820191906000526020600020905b81548152906001019060200180831161078557829003601f168201915b50505050508152602001600282015481525050815260200190600101906106a0565b50505050905090565b610863816040516024016107e19190610d7f565b6040516020818303038152906040527f41304fac000000000000000000000000000000000000000000000000000000007bffffffffffffffffffffffffffffffffffffffffffffffffffffffff19166020820180517bffffffffffffffffffffffffffffffffffffffffffffffffffffffff8381831617835250505050610902565b50565b6108fe828260405160240161087c929190610da1565b6040516020818303038152906040527f319af333000000000000000000000000000000000000000000000000000000007bffffffffffffffffffffffffffffffffffffffffffffffffffffffff19166020820180517bffffffffffffffffffffffffffffffffffffffffffffffffffffffff8381831617835250505050610902565b5050565b60008151905060006a636f6e736f6c652e6c6f679050602083016000808483855afa5050505050565b8280546109379061104e565b90600052602060002090601f01602090048101928261095957600085556109a0565b82601f1061097257805160ff19168380011785556109a0565b828001600101855582156109a0579182015b8281111561099f578251825591602001919060010190610984565b5b5090506109ad91906109b1565b5090565b5b808211156109ca5760008160009055506001016109b2565b5090565b60006109e16109dc84610ec3565b610e9e565b9050828152602081018484840111156109f957600080fd5b610a0484828561100c565b509392505050565b600081359050610a1b81611279565b92915050565b600082601f830112610a3257600080fd5b8135610a428482602086016109ce565b91505092915050565b600060208284031215610a5d57600080fd5b6000610a6b84828501610a0c565b91505092915050565b600060208284031215610a8657600080fd5b600082013567ffffffffffffffff811115610aa057600080fd5b610aac84828501610a21565b91505092915050565b6000610ac18383610cda565b905092915050565b610ad281610fd0565b82525050565b610ae181610fd0565b82525050565b6000610af282610f19565b610afc8185610f3c565b935083602082028501610b0e85610ef4565b8060005b85811015610b4a5784840389528151610b2b8582610ab5565b9450610b3683610f2f565b925060208a01995050600181019050610b12565b50829750879550505050505092915050565b6000610b6782610f24565b610b718185610f58565b9350610b8181856020860161101b565b610b8a8161119e565b840191505092915050565b6000610ba082610f24565b610baa8185610f69565b9350610bba81856020860161101b565b610bc38161119e565b840191505092915050565b60008154610bdb8161104e565b610be58186610f69565b94506001821660008114610c005760018114610c1257610c45565b60ff1983168652602086019350610c45565b610c1b85610f04565b60005b83811015610c3d57815481890152600182019150602081019050610c1e565b808801955050505b50505092915050565b6000610c5b602783610f69565b9150610c66826111af565b604082019050919050565b6000610c7e603583610f69565b9150610c89826111fe565b604082019050919050565b6000610ca1600083610f4d565b9150610cac8261124d565b600082019050919050565b6000610cc4600883610f69565b9150610ccf82611250565b602082019050919050565b6000606083016000830151610cf26000860182610ac9565b5060208301518482036020860152610d0a8282610b5c565b9150506040830151610d1f6040860182610d2a565b508091505092915050565b610d3381611002565b82525050565b610d4281611002565b82525050565b6000610d5382610c94565b9150819050919050565b60006020820190508181036000830152610d778184610ae7565b905092915050565b60006020820190508181036000830152610d998184610b95565b905092915050565b60006040820190508181036000830152610dbb8185610b95565b9050610dca6020830184610ad8565b9392505050565b60006020820190508181036000830152610deb8184610bce565b905092915050565b60006020820190508181036000830152610e0c81610c4e565b9050919050565b60006020820190508181036000830152610e2c81610c71565b9050919050565b60006020820190508181036000830152610e4c81610cb7565b9050919050565b6000602082019050610e686000830184610d39565b92915050565b6000604082019050610e836000830185610d39565b8181036020830152610e958184610b95565b90509392505050565b6000610ea8610eb9565b9050610eb48282611080565b919050565b6000604051905090565b600067ffffffffffffffff821115610ede57610edd61116f565b5b610ee78261119e565b9050602081019050919050565b6000819050602082019050919050565b60008190508160005260206000209050919050565b600081519050919050565b600081519050919050565b6000602082019050919050565b600082825260208201905092915050565b600081905092915050565b600082825260208201905092915050565b600082825260208201905092915050565b6000610f8582611002565b9150610f9083611002565b9250827fffffffffffffffffffffffffffffffffffffffffffffffffffffffffffffffff03821115610fc557610fc46110e2565b5b828201905092915050565b6000610fdb82610fe2565b9050919050565b600073ffffffffffffffffffffffffffffffffffffffff82169050919050565b6000819050919050565b82818337600083830152505050565b60005b8381101561103957808201518184015260208101905061101e565b83811115611048576000848401525b50505050565b6000600282049050600182168061106657607f821691505b6020821081141561107a57611079611140565b5b50919050565b6110898261119e565b810181811067ffffffffffffffff821117156110a8576110a761116f565b5b80604052505050565b60006110bc82611002565b91506110c783611002565b9250826110d7576110d6611111565b5b828206905092915050565b7f4e487b7100000000000000000000000000000000000000000000000000000000600052601160045260246000fd5b7f4e487b7100000000000000000000000000000000000000000000000000000000600052601260045260246000fd5b7f4e487b7100000000000000000000000000000000000000000000000000000000600052602260045260246000fd5b7f4e487b7100000000000000000000000000000000000000000000000000000000600052604160045260246000fd5b6000601f19601f8301169050919050565b7f4661696c656420746f207769746864726177206d6f6e65792066726f6d20636f60008201527f6e74726163742e00000000000000000000000000000000000000000000000000602082015250565b7f547279696e6720746f207769746864726177206d6f7265206d6f6e657920746860008201527f616e207468657920636f6e7472616374206861732e0000000000000000000000602082015250565b50565b7f576169742031356d000000000000000000000000000000000000000000000000600082015250565b61128281610fd0565b811461128d57600080fd5b5056fea2646970667358221220bd26971230011e4daf21dbeb2982958d826ca9aee647371c0f86ce2006c3fdb264736f6c63430008040033",
  "linkReferences": {},
  "deployedLinkReferences": {}
}