{
  "_format": "hh-sol-artifact-1",
  "contractName": "WavePortal",
  "sourceName": "contracts/WavePortal.sol",
  "abi": [
    {
      "inputs": [],
      "stateMutability": "payable",
      "type": "constructor"
    },
    {
      "anonymous": false,
      "inputs": [
        {
          "indexed": false,
          "internalType": "uint256",
          "name": "likesForPic1",
          "type": "uint256"
        }
      ],
      "name": "NewLikeForPic1",
      "type": "event"
    },
    {
      "anonymous": false,
      "inputs": [
        {
          "indexed": false,
          "internalType": "uint256",
          "name": "likesForPic2",
          "type": "uint256"
        }
      ],
      "name": "NewLikeForPic2",
      "type": "event"
    },
    {
      "anonymous": false,
      "inputs": [
        {
          "indexed": false,
          "internalType": "uint256",
          "name": "likesForPic3",
          "type": "uint256"
        }
      ],
      "name": "NewLikeForPic3",
      "type": "event"
    },
    {
      "anonymous": false,
      "inputs": [
        {
          "indexed": false,
          "internalType": "string",
          "name": "statement",
          "type": "string"
        }
      ],
      "name": "NewStatement",
      "type": "event"
    },
    {
      "anonymous": false,
      "inputs": [
        {
          "indexed": false,
          "internalType": "uint256",
          "name": "totalWaves",
          "type": "uint256"
        }
      ],
      "name": "NewTotalWave",
      "type": "event"
    },
    {
      "anonymous": false,
      "inputs": [
        {
          "indexed": true,
          "internalType": "address",
          "name": "from",
          "type": "address"
        },
        {
          "indexed": false,
          "internalType": "uint256",
          "name": "timestamp",
          "type": "uint256"
        },
        {
          "indexed": false,
          "internalType": "string",
          "name": "message",
          "type": "string"
        }
      ],
      "name": "NewWave",
      "type": "event"
    },
    {
      "inputs": [],
      "name": "getAllWaves",
      "outputs": [
        {
          "components": [
            {
              "internalType": "address",
              "name": "waver",
              "type": "address"
            },
            {
              "internalType": "string",
              "name": "message",
              "type": "string"
            },
            {
              "internalType": "uint256",
              "name": "timestamp",
              "type": "uint256"
            }
          ],
          "internalType": "struct WavePortal.Wave[]",
          "name": "",
          "type": "tuple[]"
        }
      ],
      "stateMutability": "view",
      "type": "function"
    },
    {
      "inputs": [],
      "name": "getLikesForPic1",
      "outputs": [
        {
          "internalType": "uint256",
          "name": "",
          "type": "uint256"
        }
      ],
      "stateMutability": "view",
      "type": "function"
    },
    {
      "inputs": [],
      "name": "getLikesForPic2",
      "outputs": [
        {
          "internalType": "uint256",
          "name": "",
          "type": "uint256"
        }
      ],
      "stateMutability": "view",
      "type": "function"
    },
    {
      "inputs": [],
      "name": "getLikesForPic3",
      "outputs": [
        {
          "internalType": "uint256",
          "name": "",
          "type": "uint256"
        }
      ],
      "stateMutability": "view",
      "type": "function"
    },
    {
      "inputs": [],
      "name": "getStatement",
      "outputs": [
        {
          "internalType": "string",
          "name": "",
          "type": "string"
        }
      ],
      "stateMutability": "view",
      "type": "function"
    },
    {
      "inputs": [],
      "name": "getTotalWaves",
      "outputs": [
        {
          "internalType": "uint256",
          "name": "",
          "type": "uint256"
        }
      ],
      "stateMutability": "view",
      "type": "function"
    },
    {
      "inputs": [
        {
          "internalType": "address",
          "name": "",
          "type": "address"
        }
      ],
      "name": "lastLikedForPic1At",
      "outputs": [
        {
          "internalType": "uint256",
          "name": "",
          "type": "uint256"
        }
      ],
      "stateMutability": "view",
      "type": "function"
    },
    {
      "inputs": [
        {
          "internalType": "address",
          "name": "",
          "type": "address"
        }
      ],
      "name": "lastLikedForPic2At",
      "outputs": [
        {
          "internalType": "uint256",
          "name": "",
          "type": "uint256"
        }
      ],
      "stateMutability": "view",
      "type": "function"
    },
    {
      "inputs": [
        {
          "internalType": "address",
          "name": "",
          "type": "address"
        }
      ],
      "name": "lastLikedForPic3At",
      "outputs": [
        {
          "internalType": "uint256",
          "name": "",
          "type": "uint256"
        }
      ],
      "stateMutability": "view",
      "type": "function"
    },
    {
      "inputs": [
        {
          "internalType": "address",
          "name": "",
          "type": "address"
        }
      ],
      "name": "lastWavedAt",
      "outputs": [
        {
          "internalType": "uint256",
          "name": "",
          "type": "uint256"
        }
      ],
      "stateMutability": "view",
      "type": "function"
    },
    {
      "inputs": [],
      "name": "likeForPic1",
      "outputs": [],
      "stateMutability": "nonpayable",
      "type": "function"
    },
    {
      "inputs": [],
      "name": "likeForPic2",
      "outputs": [],
      "stateMutability": "nonpayable",
      "type": "function"
    },
    {
      "inputs": [],
      "name": "likeForPic3",
      "outputs": [],
      "stateMutability": "nonpayable",
      "type": "function"
    },
    {
      "inputs": [
        {
          "internalType": "string",
          "name": "_message",
          "type": "string"
        }
      ],
      "name": "wave",
      "outputs": [],
      "stateMutability": "nonpayable",
      "type": "function"
    }
  ],
  "bytecode": "0x60806040526200004f6040518060400160405280601981526020017f57652068617665206265656e20636f6e737472756374656421000000000000008152506200009f60201b620014271760201c565b6040518060200160405280600081525060019080519060200190620000769291906200016b565b50606444426200008791906200029c565b6200009391906200036f565b60058190555062000445565b6200013f81604051602401620000b691906200025c565b6040516020818303038152906040527f41304fac000000000000000000000000000000000000000000000000000000007bffffffffffffffffffffffffffffffffffffffffffffffffffffffff19166020820180517bffffffffffffffffffffffffffffffffffffffffffffffffffffffff83818316178352505050506200014260201b60201c565b50565b60008151905060006a636f6e736f6c652e6c6f679050602083016000808483855afa5050505050565b828054620001799062000339565b90600052602060002090601f0160209004810192826200019d5760008555620001e9565b82601f10620001b857805160ff1916838001178555620001e9565b82800160010185558215620001e9579182015b82811115620001e8578251825591602001919060010190620001cb565b5b509050620001f89190620001fc565b5090565b5b8082111562000217576000816000905550600101620001fd565b5090565b6000620002288262000280565b6200023481856200028b565b93506200024681856020860162000303565b620002518162000434565b840191505092915050565b600060208201905081810360008301526200027881846200021b565b905092915050565b600081519050919050565b600082825260208201905092915050565b6000620002a982620002f9565b9150620002b683620002f9565b9250827fffffffffffffffffffffffffffffffffffffffffffffffffffffffffffffffff03821115620002ee57620002ed620003a7565b5b828201905092915050565b6000819050919050565b60005b838110156200032357808201518184015260208101905062000306565b8381111562000333576000848401525b50505050565b600060028204905060018216806200035257607f821691505b6020821081141562000369576200036862000405565b5b50919050565b60006200037c82620002f9565b91506200038983620002f9565b9250826200039c576200039b620003d6565b5b828206905092915050565b7f4e487b7100000000000000000000000000000000000000000000000000000000600052601160045260246000fd5b7f4e487b7100000000000000000000000000000000000000000000000000000000600052601260045260246000fd5b7f4e487b7100000000000000000000000000000000000000000000000000000000600052602260045260246000fd5b6000601f19601f8301169050919050565b611f8c80620004556000396000f3fe608060405234801561001057600080fd5b50600436106100ea5760003560e01c8063af14bc441161008c578063c839338411610066578063c839338414610227578063dee72f3414610231578063edbfc5fb14610261578063f91d73411461027f576100ea565b8063af14bc44146101cf578063bb0c0c4c146101d9578063bd43a90814610209576100ea565b80637dab8b51116100c85780637dab8b51146101475780637f948ade146101775780639a2cdc0814610181578063a42a46631461019f576100ea565b806323cb17e8146100ef57806334cd22041461010d578063449d46c01461012b575b600080fd5b6100f761029d565b60405161010491906119fc565b60405180910390f35b61011561032f565b6040516101229190611af0565b60405180910390f35b610145600480360381019061014091906116ce565b610339565b005b610161600480360381019061015c91906116a5565b610800565b60405161016e9190611af0565b60405180910390f35b61017f610818565b005b610189610b8b565b6040516101969190611af0565b60405180910390f35b6101b960048036038101906101b491906116a5565b610b94565b6040516101c69190611af0565b60405180910390f35b6101d7610bac565b005b6101f360048036038101906101ee91906116a5565b610f1f565b6040516102009190611af0565b60405180910390f35b610211610f37565b60405161021e91906119da565b60405180910390f35b61022f611088565b005b61024b600480360381019061024691906116a5565b6113fb565b6040516102589190611af0565b60405180910390f35b610269611413565b6040516102769190611af0565b60405180910390f35b61028761141d565b6040516102949190611af0565b60405180910390f35b6060600180546102ac90611ceb565b80601f01602080910402602001604051908101604052809291908181526020018280546102d890611ceb565b80156103255780601f106102fa57610100808354040283529160200191610325565b820191906000526020600020905b81548152906001019060200180831161030857829003601f168201915b5050505050905090565b6000600354905090565b426000600760003373ffffffffffffffffffffffffffffffffffffffff1673ffffffffffffffffffffffffffffffffffffffff168152602001908152602001600020546103869190611c17565b106103c6576040517f08c379a00000000000000000000000000000000000000000000000000000000081526004016103bd90611ad0565b60405180910390fd5b42600760003373ffffffffffffffffffffffffffffffffffffffff1673ffffffffffffffffffffffffffffffffffffffff16815260200190815260200160002081905550600160008082825461041c9190611c17565b925050819055506104626040518060400160405280600d81526020017f2573206861732077617665642100000000000000000000000000000000000000815250336114c0565b600660405180606001604052803373ffffffffffffffffffffffffffffffffffffffff16815260200183815260200142815250908060018154018082558091505060019003906000526020600020906003020160009091909190915060008201518160000160006101000a81548173ffffffffffffffffffffffffffffffffffffffff021916908373ffffffffffffffffffffffffffffffffffffffff1602179055506020820151816001019080519060200190610521929190611585565b506040820151816002015550506064600554424461053f9190611c17565b6105499190611c17565b6105539190611d4e565b6005819055506032600554116106ef576105a26040518060400160405280600781526020017f257320776f6e2100000000000000000000000000000000000000000000000000815250336114c0565b6000655af3107a40009050478111156105f0576040517f08c379a00000000000000000000000000000000000000000000000000000000081526004016105e790611ab0565b60405180910390fd5b60003373ffffffffffffffffffffffffffffffffffffffff1682604051610616906119c5565b60006040518083038185875af1925050503d8060008114610653576040519150601f19603f3d011682016040523d82523d6000602084013e610658565b606091505b505090508061069c576040517f08c379a000000000000000000000000000000000000000000000000000000000815260040161069390611a90565b60405180910390fd5b6040518060400160405280600e81526020017f596561682120596f7520776f6e21000000000000000000000000000000000000815250600190805190602001906106e7929190611585565b50505061073c565b6040518060400160405280601781526020017f4f682e2e2e596f75206c6f73742e20536f7272792e2e2e0000000000000000008152506001908051906020019061073a929190611585565b505b3373ffffffffffffffffffffffffffffffffffffffff167f5f7e16dc676677766a70e9c5628aa6c54ddb8b6e5188e2ae1e1f17f1ffbea7164283604051610784929190611b0b565b60405180910390a27ffa4b51bd74afff2197878fe9b14891e7ed32f2f1bbef2e4b39e33472e96c01fd6000546040516107bd9190611af0565b60405180910390a17f742aed198981747399cff19ef24dd7571703496aa6d3e78cc73de5a0be5c68c960016040516107f59190611a4e565b60405180910390a150565b600a6020528060005260406000206000915090505481565b42603c600a60003373ffffffffffffffffffffffffffffffffffffffff1673ffffffffffffffffffffffffffffffffffffffff168152602001908152602001600020546108659190611c17565b106108a5576040517f08c379a000000000000000000000000000000000000000000000000000000000815260040161089c90611a70565b60405180910390fd5b42600a60003373ffffffffffffffffffffffffffffffffffffffff1673ffffffffffffffffffffffffffffffffffffffff168152602001908152602001600020819055506001600460008282546108fc9190611c17565b925050819055506109426040518060400160405280600d81526020017f257320686173206c696b65642100000000000000000000000000000000000000815250336114c0565b606460055442446109539190611c17565b61095d9190611c17565b6109679190611d4e565b600581905550603260055411610b03576109b66040518060400160405280600781526020017f257320776f6e2100000000000000000000000000000000000000000000000000815250336114c0565b6000655af3107a4000905047811115610a04576040517f08c379a00000000000000000000000000000000000000000000000000000000081526004016109fb90611ab0565b60405180910390fd5b60003373ffffffffffffffffffffffffffffffffffffffff1682604051610a2a906119c5565b60006040518083038185875af1925050503d8060008114610a67576040519150601f19603f3d011682016040523d82523d6000602084013e610a6c565b606091505b5050905080610ab0576040517f08c379a0000000000000000000000000000000000000000000000000000000008152600401610aa790611a90565b60405180910390fd5b6040518060400160405280600e81526020017f596561682120596f7520776f6e2100000000000000000000000000000000000081525060019080519060200190610afb929190611585565b505050610b50565b6040518060400160405280601781526020017f4f682e2e2e596f75206c6f73742e20536f7272792e2e2e00000000000000000081525060019080519060200190610b4e929190611585565b505b7fa1aacc5bd3cf280bc349caf9ec5b6b4ff91c4cba5a321dab07e5dc30e6a33c44600454604051610b819190611af0565b60405180910390a1565b60008054905090565b60076020528060005260406000206000915090505481565b42603c600860003373ffffffffffffffffffffffffffffffffffffffff1673ffffffffffffffffffffffffffffffffffffffff16815260200190815260200160002054610bf99190611c17565b10610c39576040517f08c379a0000000000000000000000000000000000000000000000000000000008152600401610c3090611a70565b60405180910390fd5b42600860003373ffffffffffffffffffffffffffffffffffffffff1673ffffffffffffffffffffffffffffffffffffffff16815260200190815260200160002081905550600160026000828254610c909190611c17565b92505081905550610cd66040518060400160405280600d81526020017f257320686173206c696b65642100000000000000000000000000000000000000815250336114c0565b60646005544244610ce79190611c17565b610cf19190611c17565b610cfb9190611d4e565b600581905550603260055411610e9757610d4a6040518060400160405280600781526020017f257320776f6e2100000000000000000000000000000000000000000000000000815250336114c0565b6000655af3107a4000905047811115610d98576040517f08c379a0000000000000000000000000000000000000000000000000000000008152600401610d8f90611ab0565b60405180910390fd5b60003373ffffffffffffffffffffffffffffffffffffffff1682604051610dbe906119c5565b60006040518083038185875af1925050503d8060008114610dfb576040519150601f19603f3d011682016040523d82523d6000602084013e610e00565b606091505b5050905080610e44576040517f08c379a0000000000000000000000000000000000000000000000000000000008152600401610e3b90611a90565b60405180910390fd5b6040518060400160405280600e81526020017f596561682120596f7520776f6e2100000000000000000000000000000000000081525060019080519060200190610e8f929190611585565b505050610ee4565b6040518060400160405280601781526020017f4f682e2e2e596f75206c6f73742e20536f7272792e2e2e00000000000000000081525060019080519060200190610ee2929190611585565b505b7f0e24bb0d77a220892357d0a1e39a71d2c46c0c26becd31c4b51003fb21bf5bea600254604051610f159190611af0565b60405180910390a1565b60086020528060005260406000206000915090505481565b60606006805480602002602001604051908101604052809291908181526020016000905b8282101561107f57838290600052602060002090600302016040518060600160405290816000820160009054906101000a900473ffffffffffffffffffffffffffffffffffffffff1673ffffffffffffffffffffffffffffffffffffffff1673ffffffffffffffffffffffffffffffffffffffff168152602001600182018054610fe490611ceb565b80601f016020809104026020016040519081016040528092919081815260200182805461101090611ceb565b801561105d5780601f106110325761010080835404028352916020019161105d565b820191906000526020600020905b81548152906001019060200180831161104057829003601f168201915b5050505050815260200160028201548152505081526020019060010190610f5b565b50505050905090565b42603c600960003373ffffffffffffffffffffffffffffffffffffffff1673ffffffffffffffffffffffffffffffffffffffff168152602001908152602001600020546110d59190611c17565b10611115576040517f08c379a000000000000000000000000000000000000000000000000000000000815260040161110c90611a70565b60405180910390fd5b42600960003373ffffffffffffffffffffffffffffffffffffffff1673ffffffffffffffffffffffffffffffffffffffff1681526020019081526020016000208190555060016003600082825461116c9190611c17565b925050819055506111b26040518060400160405280600d81526020017f257320686173206c696b65642100000000000000000000000000000000000000815250336114c0565b606460055442446111c39190611c17565b6111cd9190611c17565b6111d79190611d4e565b600581905550603260055411611373576112266040518060400160405280600781526020017f257320776f6e2100000000000000000000000000000000000000000000000000815250336114c0565b6000655af3107a4000905047811115611274576040517f08c379a000000000000000000000000000000000000000000000000000000000815260040161126b90611ab0565b60405180910390fd5b60003373ffffffffffffffffffffffffffffffffffffffff168260405161129a906119c5565b60006040518083038185875af1925050503d80600081146112d7576040519150601f19603f3d011682016040523d82523d6000602084013e6112dc565b606091505b5050905080611320576040517f08c379a000000000000000000000000000000000000000000000000000000000815260040161131790611a90565b60405180910390fd5b6040518060400160405280600e81526020017f596561682120596f7520776f6e210000000000000000000000000000000000008152506001908051906020019061136b929190611585565b5050506113c0565b6040518060400160405280601781526020017f4f682e2e2e596f75206c6f73742e20536f7272792e2e2e000000000000000000815250600190805190602001906113be929190611585565b505b7fb4f8d319c2e2e20e6846daa2d44b0bccfc2c6ec8e9d092f9efadaa0d8cd6ae296003546040516113f19190611af0565b60405180910390a1565b60096020528060005260406000206000915090505481565b6000600254905090565b6000600454905090565b6114bd8160405160240161143b91906119fc565b6040516020818303038152906040527f41304fac000000000000000000000000000000000000000000000000000000007bffffffffffffffffffffffffffffffffffffffffffffffffffffffff19166020820180517bffffffffffffffffffffffffffffffffffffffffffffffffffffffff838183161783525050505061155c565b50565b61155882826040516024016114d6929190611a1e565b6040516020818303038152906040527f319af333000000000000000000000000000000000000000000000000000000007bffffffffffffffffffffffffffffffffffffffffffffffffffffffff19166020820180517bffffffffffffffffffffffffffffffffffffffffffffffffffffffff838183161783525050505061155c565b5050565b60008151905060006a636f6e736f6c652e6c6f679050602083016000808483855afa5050505050565b82805461159190611ceb565b90600052602060002090601f0160209004810192826115b357600085556115fa565b82601f106115cc57805160ff19168380011785556115fa565b828001600101855582156115fa579182015b828111156115f95782518255916020019190600101906115de565b5b509050611607919061160b565b5090565b5b8082111561162457600081600090555060010161160c565b5090565b600061163b61163684611b60565b611b3b565b90508281526020810184848401111561165357600080fd5b61165e848285611ca9565b509392505050565b60008135905061167581611f3f565b92915050565b600082601f83011261168c57600080fd5b813561169c848260208601611628565b91505092915050565b6000602082840312156116b757600080fd5b60006116c584828501611666565b91505092915050565b6000602082840312156116e057600080fd5b600082013567ffffffffffffffff8111156116fa57600080fd5b6117068482850161167b565b91505092915050565b600061171b8383611957565b905092915050565b61172c81611c6d565b82525050565b61173b81611c6d565b82525050565b600061174c82611bb6565b6117568185611bd9565b93508360208202850161176885611b91565b8060005b858110156117a45784840389528151611785858261170f565b945061179083611bcc565b925060208a0199505060018101905061176c565b50829750879550505050505092915050565b60006117c182611bc1565b6117cb8185611bf5565b93506117db818560208601611cb8565b6117e481611e3b565b840191505092915050565b60006117fa82611bc1565b6118048185611c06565b9350611814818560208601611cb8565b61181d81611e3b565b840191505092915050565b6000815461183581611ceb565b61183f8186611c06565b9450600182166000811461185a576001811461186c5761189f565b60ff198316865260208601935061189f565b61187585611ba1565b60005b8381101561189757815481890152600182019150602081019050611878565b808801955050505b50505092915050565b60006118b5600783611c06565b91506118c082611e4c565b602082019050919050565b60006118d8602783611c06565b91506118e382611e75565b604082019050919050565b60006118fb603583611c06565b915061190682611ec4565b604082019050919050565b600061191e600083611bea565b915061192982611f13565b600082019050919050565b6000611941600883611c06565b915061194c82611f16565b602082019050919050565b600060608301600083015161196f6000860182611723565b506020830151848203602086015261198782826117b6565b915050604083015161199c60408601826119a7565b508091505092915050565b6119b081611c9f565b82525050565b6119bf81611c9f565b82525050565b60006119d082611911565b9150819050919050565b600060208201905081810360008301526119f48184611741565b905092915050565b60006020820190508181036000830152611a1681846117ef565b905092915050565b60006040820190508181036000830152611a3881856117ef565b9050611a476020830184611732565b9392505050565b60006020820190508181036000830152611a688184611828565b905092915050565b60006020820190508181036000830152611a89816118a8565b9050919050565b60006020820190508181036000830152611aa9816118cb565b9050919050565b60006020820190508181036000830152611ac9816118ee565b9050919050565b60006020820190508181036000830152611ae981611934565b9050919050565b6000602082019050611b0560008301846119b6565b92915050565b6000604082019050611b2060008301856119b6565b8181036020830152611b3281846117ef565b90509392505050565b6000611b45611b56565b9050611b518282611d1d565b919050565b6000604051905090565b600067ffffffffffffffff821115611b7b57611b7a611e0c565b5b611b8482611e3b565b9050602081019050919050565b6000819050602082019050919050565b60008190508160005260206000209050919050565b600081519050919050565b600081519050919050565b6000602082019050919050565b600082825260208201905092915050565b600081905092915050565b600082825260208201905092915050565b600082825260208201905092915050565b6000611c2282611c9f565b9150611c2d83611c9f565b9250827fffffffffffffffffffffffffffffffffffffffffffffffffffffffffffffffff03821115611c6257611c61611d7f565b5b828201905092915050565b6000611c7882611c7f565b9050919050565b600073ffffffffffffffffffffffffffffffffffffffff82169050919050565b6000819050919050565b82818337600083830152505050565b60005b83811015611cd6578082015181840152602081019050611cbb565b83811115611ce5576000848401525b50505050565b60006002820490506001821680611d0357607f821691505b60208210811415611d1757611d16611ddd565b5b50919050565b611d2682611e3b565b810181811067ffffffffffffffff82111715611d4557611d44611e0c565b5b80604052505050565b6000611d5982611c9f565b9150611d6483611c9f565b925082611d7457611d73611dae565b5b828206905092915050565b7f4e487b7100000000000000000000000000000000000000000000000000000000600052601160045260246000fd5b7f4e487b7100000000000000000000000000000000000000000000000000000000600052601260045260246000fd5b7f4e487b7100000000000000000000000000000000000000000000000000000000600052602260045260246000fd5b7f4e487b7100000000000000000000000000000000000000000000000000000000600052604160045260246000fd5b6000601f19601f8301169050919050565b7f5761697420316d00000000000000000000000000000000000000000000000000600082015250565b7f4661696c656420746f207769746864726177206d6f6e65792066726f6d20636f60008201527f6e74726163742e00000000000000000000000000000000000000000000000000602082015250565b7f547279696e6720746f207769746864726177206d6f7265206d6f6e657920746860008201527f616e207468657920636f6e7472616374206861732e0000000000000000000000602082015250565b50565b7f576169742031356d000000000000000000000000000000000000000000000000600082015250565b611f4881611c6d565b8114611f5357600080fd5b5056fea2646970667358221220197ffb74aec0286730fd9396cec61b65a24930e396925144138d03e541a4f98f64736f6c63430008040033",
  "linkReferences": {},
  "deployedLinkReferences": {}
}